{
  "contractName": "SoftBoardCrowdsale",
  "abi": [
    {
      "constant": true,
      "inputs": [],
      "name": "hasClosed",
      "outputs": [
        {
          "name": "",
          "type": "bool"
        }
      ],
      "payable": false,
      "stateMutability": "view",
      "type": "function"
    },
    {
      "constant": true,
      "inputs": [],
      "name": "rate",
      "outputs": [
        {
          "name": "",
          "type": "uint256"
        }
      ],
      "payable": false,
      "stateMutability": "view",
      "type": "function"
    },
    {
      "constant": true,
      "inputs": [],
      "name": "cap",
      "outputs": [
        {
          "name": "",
          "type": "uint256"
        }
      ],
      "payable": false,
      "stateMutability": "view",
      "type": "function"
    },
    {
      "constant": true,
      "inputs": [],
      "name": "goal",
      "outputs": [
        {
          "name": "",
          "type": "uint256"
        }
      ],
      "payable": false,
      "stateMutability": "view",
      "type": "function"
    },
    {
      "constant": true,
      "inputs": [],
      "name": "weiRaised",
      "outputs": [
        {
          "name": "",
          "type": "uint256"
        }
      ],
      "payable": false,
      "stateMutability": "view",
      "type": "function"
    },
    {
      "constant": true,
      "inputs": [],
      "name": "closingTime",
      "outputs": [
        {
          "name": "",
          "type": "uint256"
        }
      ],
      "payable": false,
      "stateMutability": "view",
      "type": "function"
    },
    {
      "constant": false,
      "inputs": [],
      "name": "finalize",
      "outputs": [],
      "payable": false,
      "stateMutability": "nonpayable",
      "type": "function"
    },
    {
      "constant": true,
      "inputs": [],
      "name": "capReached",
      "outputs": [
        {
          "name": "",
          "type": "bool"
        }
      ],
      "payable": false,
      "stateMutability": "view",
      "type": "function"
    },
    {
      "constant": true,
      "inputs": [],
      "name": "wallet",
      "outputs": [
        {
          "name": "",
          "type": "address"
        }
      ],
      "payable": false,
      "stateMutability": "view",
      "type": "function"
    },
    {
      "constant": true,
      "inputs": [],
      "name": "goalReached",
      "outputs": [
        {
          "name": "",
          "type": "bool"
        }
      ],
      "payable": false,
      "stateMutability": "view",
      "type": "function"
    },
    {
      "constant": false,
      "inputs": [
        {
          "name": "_beneficiary",
          "type": "address"
        }
      ],
      "name": "removeFromWhitelist",
      "outputs": [],
      "payable": false,
      "stateMutability": "nonpayable",
      "type": "function"
    },
    {
      "constant": false,
      "inputs": [
        {
          "name": "_beneficiaries",
          "type": "address[]"
        }
      ],
      "name": "addManyToWhitelist",
      "outputs": [],
      "payable": false,
      "stateMutability": "nonpayable",
      "type": "function"
    },
    {
      "constant": true,
      "inputs": [],
      "name": "isFinalized",
      "outputs": [
        {
          "name": "",
          "type": "bool"
        }
      ],
      "payable": false,
      "stateMutability": "view",
      "type": "function"
    },
    {
      "constant": true,
      "inputs": [],
      "name": "owner",
      "outputs": [
        {
          "name": "",
          "type": "address"
        }
      ],
      "payable": false,
      "stateMutability": "view",
      "type": "function"
    },
    {
      "constant": true,
      "inputs": [
        {
          "name": "",
          "type": "address"
        }
      ],
      "name": "whitelist",
      "outputs": [
        {
          "name": "",
          "type": "bool"
        }
      ],
      "payable": false,
      "stateMutability": "view",
      "type": "function"
    },
    {
      "constant": false,
      "inputs": [],
      "name": "claimRefund",
      "outputs": [],
      "payable": false,
      "stateMutability": "nonpayable",
      "type": "function"
    },
    {
      "constant": true,
      "inputs": [],
      "name": "openingTime",
      "outputs": [
        {
          "name": "",
          "type": "uint256"
        }
      ],
      "payable": false,
      "stateMutability": "view",
      "type": "function"
    },
    {
      "constant": false,
      "inputs": [
        {
          "name": "_beneficiary",
          "type": "address"
        }
      ],
      "name": "addToWhitelist",
      "outputs": [],
      "payable": false,
      "stateMutability": "nonpayable",
      "type": "function"
    },
    {
      "constant": false,
      "inputs": [
        {
          "name": "_beneficiary",
          "type": "address"
        }
      ],
      "name": "buyTokens",
      "outputs": [],
      "payable": true,
      "stateMutability": "payable",
      "type": "function"
    },
    {
      "constant": false,
      "inputs": [
        {
          "name": "newOwner",
          "type": "address"
        }
      ],
      "name": "transferOwnership",
      "outputs": [],
      "payable": false,
      "stateMutability": "nonpayable",
      "type": "function"
    },
    {
      "constant": true,
      "inputs": [],
      "name": "vault",
      "outputs": [
        {
          "name": "",
          "type": "address"
        }
      ],
      "payable": false,
      "stateMutability": "view",
      "type": "function"
    },
    {
      "constant": true,
      "inputs": [],
      "name": "token",
      "outputs": [
        {
          "name": "",
          "type": "address"
        }
      ],
      "payable": false,
      "stateMutability": "view",
      "type": "function"
    },
    {
      "inputs": [
        {
          "name": "_openingTime",
          "type": "uint256"
        },
        {
          "name": "_closingTime",
          "type": "uint256"
        },
        {
          "name": "_rate",
          "type": "uint256"
        },
        {
          "name": "_wallet",
          "type": "address"
        },
        {
          "name": "_cap",
          "type": "uint256"
        },
        {
          "name": "_token",
          "type": "address"
        },
        {
          "name": "_goal",
          "type": "uint256"
        }
      ],
      "payable": false,
      "stateMutability": "nonpayable",
      "type": "constructor"
    },
    {
      "payable": true,
      "stateMutability": "payable",
      "type": "fallback"
    },
    {
      "anonymous": false,
      "inputs": [],
      "name": "Finalized",
      "type": "event"
    },
    {
      "anonymous": false,
      "inputs": [
        {
          "indexed": true,
          "name": "previousOwner",
          "type": "address"
        },
        {
          "indexed": true,
          "name": "newOwner",
          "type": "address"
        }
      ],
      "name": "OwnershipTransferred",
      "type": "event"
    },
    {
      "anonymous": false,
      "inputs": [
        {
          "indexed": true,
          "name": "purchaser",
          "type": "address"
        },
        {
          "indexed": true,
          "name": "beneficiary",
          "type": "address"
        },
        {
          "indexed": false,
          "name": "value",
          "type": "uint256"
        },
        {
          "indexed": false,
          "name": "amount",
          "type": "uint256"
        }
      ],
      "name": "TokenPurchase",
      "type": "event"
    }
  ],
  "bytecode": "0x60606040526007805460a060020a60ff0219169055341561001f57600080fd5b60405160e0806111ee8339810160405280805191906020018051919060200180519190602001805191906020018051919060200180519190602001805191508190508787858888876000831161007457600080fd5b600160a060020a038216151561008957600080fd5b600160a060020a038116151561009e57600080fd5b60029290925560018054600160a060020a03928316600160a060020a0319918216179091556000805492909316911617815581116100db57600080fd5b600455428210156100eb57600080fd5b818110156100f857600080fd5b60059190915560065560078054600160a060020a03191633600160a060020a03161790556000811161012957600080fd5b600154600160a060020a031661013d61019f565b600160a060020a039091168152602001604051809103906000f080151561016357600080fd5b60098054600160a060020a031916600160a060020a03929092169190911790556008558281111561019357600080fd5b505050505050506101af565b60405161060c80610be283390190565b610a24806101be6000396000f30060606040526004361061010e5763ffffffff60e060020a6000350416631515bc2b81146101195780632c4e722e14610140578063355274ea1461016557806340193883146101785780634042b66f1461018b5780634b6753bc1461019e5780634bb278f3146101b15780634f935945146101c4578063521eb273146101d75780637d3d6522146102065780638ab1d681146102195780638c10671c146102385780638d4e4083146102565780638da5cb5b146102695780639b19251a1461027c578063b5545a3c1461029b578063b7a8807c146102ae578063e43252d7146102c1578063ec8ac4d8146102e0578063f2fde38b146102f4578063fbfa77cf14610313578063fc0c546a14610326575b61011733610339565b005b341561012457600080fd5b61012c6103e1565b604051901515815260200160405180910390f35b341561014b57600080fd5b6101536103e9565b60405190815260200160405180910390f35b341561017057600080fd5b6101536103ef565b341561018357600080fd5b6101536103f5565b341561019657600080fd5b6101536103fb565b34156101a957600080fd5b610153610401565b34156101bc57600080fd5b610117610407565b34156101cf57600080fd5b61012c6104a6565b34156101e257600080fd5b6101ea6104b1565b604051600160a060020a03909116815260200160405180910390f35b341561021157600080fd5b61012c6104c0565b341561022457600080fd5b610117600160a060020a03600435166104cb565b341561024357600080fd5b6101176004803560248101910135610507565b341561026157600080fd5b61012c61057c565b341561027457600080fd5b6101ea61058c565b341561028757600080fd5b61012c600160a060020a036004351661059b565b34156102a657600080fd5b6101176105b0565b34156102b957600080fd5b61015361063b565b34156102cc57600080fd5b610117600160a060020a0360043516610641565b610117600160a060020a0360043516610339565b34156102ff57600080fd5b610117600160a060020a0360043516610680565b341561031e57600080fd5b6101ea61071b565b341561033157600080fd5b6101ea61072a565b3460006103468383610739565b61034f8261076c565b600354909150610365908363ffffffff61078916565b60035561037283826107a3565b82600160a060020a031633600160a060020a03167f623b3804fa71d67900d064613da8f94b9617215ee90799290593e1745087ad18848460405191825260208201526040908101905180910390a36103ca83836107ad565b6103d26107b1565b6103dc83836107ad565b505050565b600654421190565b60025481565b60045481565b60085481565b60035481565b60065481565b60075433600160a060020a0390811691161461042257600080fd5b60075460a060020a900460ff161561043957600080fd5b6104416103e1565b151561044c57600080fd5b610454610818565b7f6823b073d48d6e3a7d385eeb601452d680e74bb46afe3255a7d778f3a9b1768160405160405180910390a16007805474ff0000000000000000000000000000000000000000191660a060020a179055565b600454600354101590565b600154600160a060020a031681565b600854600354101590565b60075433600160a060020a039081169116146104e657600080fd5b600160a060020a03166000908152600a60205260409020805460ff19169055565b60075460009033600160a060020a0390811691161461052557600080fd5b5060005b818110156103dc576001600a600085858581811061054357fe5b60209081029290920135600160a060020a0316835250810191909152604001600020805460ff1916911515919091179055600101610529565b60075460a060020a900460ff1681565b600754600160a060020a031681565b600a6020526000908152604090205460ff1681565b60075460a060020a900460ff1615156105c857600080fd5b6105d06104c0565b156105da57600080fd5b600954600160a060020a031663fa89401a3360405160e060020a63ffffffff8416028152600160a060020a039091166004820152602401600060405180830381600087803b151561062a57600080fd5b6102c65a03f115156103dc57600080fd5b60055481565b60075433600160a060020a0390811691161461065c57600080fd5b600160a060020a03166000908152600a60205260409020805460ff19166001179055565b60075433600160a060020a0390811691161461069b57600080fd5b600160a060020a03811615156106b057600080fd5b600754600160a060020a0380831691167f8be0079c531659141344cd1fd0a4f28419497f9722a3daafe3b4186f6b6457e060405160405180910390a36007805473ffffffffffffffffffffffffffffffffffffffff1916600160a060020a0392909216919091179055565b600954600160a060020a031681565b600054600160a060020a031681565b600160a060020a0382166000908152600a6020526040902054829060ff16151561076257600080fd5b6103dc83836108d7565b60006107836002548361090090919063ffffffff16565b92915050565b60008282018381101561079857fe5b8091505b5092915050565b6107ad828261092b565b5050565b600954600160a060020a031663f340fa01343360405160e060020a63ffffffff8516028152600160a060020a0390911660048201526024016000604051808303818588803b151561080157600080fd5b6125ee5a03f1151561081257600080fd5b50505050565b6108206104c0565b1561087d57600954600160a060020a03166343d726d66040518163ffffffff1660e060020a028152600401600060405180830381600087803b151561086457600080fd5b6102c65a03f1151561087557600080fd5b5050506108d1565b600954600160a060020a0316638c52dc416040518163ffffffff1660e060020a028152600401600060405180830381600087803b15156108bc57600080fd5b6102c65a03f115156108cd57600080fd5b5050505b6108d55b565b60055442101580156108eb57506006544211155b15156108f657600080fd5b6107ad82826109ac565b600080831515610913576000915061079c565b5082820282848281151561092357fe5b041461079857fe5b60008054600160a060020a03169063a9059cbb90849084906040516020015260405160e060020a63ffffffff8516028152600160a060020a0390921660048301526024820152604401602060405180830381600087803b151561098d57600080fd5b6102c65a03f1151561099e57600080fd5b505050604051805150505050565b6109b682826109d7565b6004546003546109cc908363ffffffff61078916565b11156107ad57600080fd5b600160a060020a03821615156109ec57600080fd5b8015156107ad57600080fd00a165627a7a723058202e32ed6ff983bec242c080d4da7b30e8219c13ce4dfdb4ff7df9e03d71be5beb00296060604052341561000f57600080fd5b60405160208061060c8339810160405280805160008054600160a060020a03191633600160a060020a039081169190911790915590925082161515905061005557600080fd5b60028054600160a060020a031916600160a060020a03929092169190911760a060020a60ff021916905561057e8061008e6000396000f3006060604052600436106100985763ffffffff7c010000000000000000000000000000000000000000000000000000000060003504166343d726d6811461009d578063521eb273146100b25780638c52dc41146100e15780638da5cb5b146100f4578063c19d93fb14610107578063cb13cddb1461013e578063f2fde38b1461016f578063f340fa011461018e578063fa89401a146101a2575b600080fd5b34156100a857600080fd5b6100b06101c1565b005b34156100bd57600080fd5b6100c561029c565b604051600160a060020a03909116815260200160405180910390f35b34156100ec57600080fd5b6100b06102ab565b34156100ff57600080fd5b6100c561033c565b341561011257600080fd5b61011a61034b565b6040518082600281111561012a57fe5b60ff16815260200191505060405180910390f35b341561014957600080fd5b61015d600160a060020a036004351661035b565b60405190815260200160405180910390f35b341561017a57600080fd5b6100b0600160a060020a036004351661036d565b6100b0600160a060020a0360043516610408565b34156101ad57600080fd5b6100b0600160a060020a036004351661048c565b60005433600160a060020a039081169116146101dc57600080fd5b60006002805460a060020a900460ff16908111156101f657fe5b1461020057600080fd5b6002805474ff00000000000000000000000000000000000000001916740200000000000000000000000000000000000000001790557f1cdde67b72a90f19919ac732a437ac2f7a10fc128d28c2a6e525d89ce5cd9d3a60405160405180910390a1600254600160a060020a039081169030163180156108fc0290604051600060405180830381858888f19350505050151561029a57600080fd5b565b600254600160a060020a031681565b60005433600160a060020a039081169116146102c657600080fd5b60006002805460a060020a900460ff16908111156102e057fe5b146102ea57600080fd5b6002805474ff0000000000000000000000000000000000000000191660a060020a1790557f599d8e5a83cffb867d051598c4d70e805d59802d8081c1c7d6dffc5b6aca2b8960405160405180910390a1565b600054600160a060020a031681565b60025460a060020a900460ff1681565b60016020526000908152604090205481565b60005433600160a060020a0390811691161461038857600080fd5b600160a060020a038116151561039d57600080fd5b600054600160a060020a0380831691167f8be0079c531659141344cd1fd0a4f28419497f9722a3daafe3b4186f6b6457e060405160405180910390a36000805473ffffffffffffffffffffffffffffffffffffffff1916600160a060020a0392909216919091179055565b60005433600160a060020a0390811691161461042357600080fd5b60006002805460a060020a900460ff169081111561043d57fe5b1461044757600080fd5b600160a060020a038116600090815260016020526040902054610470903463ffffffff61053c16565b600160a060020a03909116600090815260016020526040902055565b600060016002805460a060020a900460ff16908111156104a857fe5b146104b257600080fd5b50600160a060020a038116600081815260016020526040808220805492905590919082156108fc0290839051600060405180830381858888f1935050505015156104fb57600080fd5b81600160a060020a03167fd7dee2702d63ad89917b6a4da9981c90c4d24f8c2bdfd64c604ecae57d8d06518260405190815260200160405180910390a25050565b60008282018381101561054b57fe5b93925050505600a165627a7a723058201375e7becff11543060ef0d71674c90c50cdd22c43f61ba655a3c116d111ad5b0029",
  "source": "pragma solidity ^0.4.18;\n\nimport \"zeppelin-solidity/contracts/crowdsale/validation/CappedCrowdsale.sol\";\nimport \"zeppelin-solidity/contracts/crowdsale/validation/WhitelistedCrowdsale.sol\";\nimport \"zeppelin-solidity/contracts/crowdsale/distribution/RefundableCrowdsale.sol\";\nimport 'zeppelin-solidity/contracts/token/ERC20/MintableToken.sol';\n\n\ncontract SoftBoardCrowdsale is CappedCrowdsale, RefundableCrowdsale, WhitelistedCrowdsale {\n\n  function SoftBoardCrowdsale(uint256 _openingTime, uint256 _closingTime, uint256 _rate, address _wallet, uint256 _cap, MintableToken _token, uint256 _goal) public\n    Crowdsale(_rate, _wallet, _token)\n    CappedCrowdsale(_cap)\n    TimedCrowdsale(_openingTime, _closingTime)\n    RefundableCrowdsale(_goal)\n    WhitelistedCrowdsale()\n  {\n    //As goal needs to be met for a successful crowdsale\n    //the value needs to less or equal than a cap which is limit for accepted funds\n    require(_goal <= _cap);\n\n  }\n\n}\n",
  "sourcePath": "/Users/wenwenchen/Dropbox/SoftBoardCoin_3/contracts/SoftBoardCrowdsale.sol",
  "compiler": {
    "name": "solc",
    "version": "0.4.19+commit.c4cbbb05.Emscripten.clang"
  },
  "schemaVersion": "2.0.0",
  "updatedAt": "2018-04-02T04:00:25.330Z"
}