{
  "contractName": "TestCrowdsale",
  "abi": [
    {
      "constant": true,
      "inputs": [],
      "name": "hasClosed",
      "outputs": [
        {
          "name": "",
          "type": "bool"
        }
      ],
      "payable": false,
      "stateMutability": "view",
      "type": "function"
    },
    {
      "constant": true,
      "inputs": [],
      "name": "rate",
      "outputs": [
        {
          "name": "",
          "type": "uint256"
        }
      ],
      "payable": false,
      "stateMutability": "view",
      "type": "function"
    },
    {
      "constant": true,
      "inputs": [],
      "name": "cap",
      "outputs": [
        {
          "name": "",
          "type": "uint256"
        }
      ],
      "payable": false,
      "stateMutability": "view",
      "type": "function"
    },
    {
      "constant": true,
      "inputs": [],
      "name": "goal",
      "outputs": [
        {
          "name": "",
          "type": "uint256"
        }
      ],
      "payable": false,
      "stateMutability": "view",
      "type": "function"
    },
    {
      "constant": true,
      "inputs": [],
      "name": "weiRaised",
      "outputs": [
        {
          "name": "",
          "type": "uint256"
        }
      ],
      "payable": false,
      "stateMutability": "view",
      "type": "function"
    },
    {
      "constant": true,
      "inputs": [],
      "name": "closingTime",
      "outputs": [
        {
          "name": "",
          "type": "uint256"
        }
      ],
      "payable": false,
      "stateMutability": "view",
      "type": "function"
    },
    {
      "constant": false,
      "inputs": [],
      "name": "finalize",
      "outputs": [],
      "payable": false,
      "stateMutability": "nonpayable",
      "type": "function"
    },
    {
      "constant": true,
      "inputs": [],
      "name": "tokensForEcosystem",
      "outputs": [
        {
          "name": "",
          "type": "uint256"
        }
      ],
      "payable": false,
      "stateMutability": "view",
      "type": "function"
    },
    {
      "constant": true,
      "inputs": [],
      "name": "capReached",
      "outputs": [
        {
          "name": "",
          "type": "bool"
        }
      ],
      "payable": false,
      "stateMutability": "view",
      "type": "function"
    },
    {
      "constant": true,
      "inputs": [],
      "name": "wallet",
      "outputs": [
        {
          "name": "",
          "type": "address"
        }
      ],
      "payable": false,
      "stateMutability": "view",
      "type": "function"
    },
    {
      "constant": true,
      "inputs": [],
      "name": "totalTokensForSale",
      "outputs": [
        {
          "name": "",
          "type": "uint256"
        }
      ],
      "payable": false,
      "stateMutability": "view",
      "type": "function"
    },
    {
      "constant": true,
      "inputs": [],
      "name": "tokensForBounty",
      "outputs": [
        {
          "name": "",
          "type": "uint256"
        }
      ],
      "payable": false,
      "stateMutability": "view",
      "type": "function"
    },
    {
      "constant": true,
      "inputs": [],
      "name": "goalReached",
      "outputs": [
        {
          "name": "",
          "type": "bool"
        }
      ],
      "payable": false,
      "stateMutability": "view",
      "type": "function"
    },
    {
      "constant": false,
      "inputs": [
        {
          "name": "_beneficiary",
          "type": "address"
        }
      ],
      "name": "removeFromWhitelist",
      "outputs": [],
      "payable": false,
      "stateMutability": "nonpayable",
      "type": "function"
    },
    {
      "constant": false,
      "inputs": [
        {
          "name": "_beneficiaries",
          "type": "address[]"
        }
      ],
      "name": "addManyToWhitelist",
      "outputs": [],
      "payable": false,
      "stateMutability": "nonpayable",
      "type": "function"
    },
    {
      "constant": true,
      "inputs": [],
      "name": "isFinalized",
      "outputs": [
        {
          "name": "",
          "type": "bool"
        }
      ],
      "payable": false,
      "stateMutability": "view",
      "type": "function"
    },
    {
      "constant": true,
      "inputs": [],
      "name": "owner",
      "outputs": [
        {
          "name": "",
          "type": "address"
        }
      ],
      "payable": false,
      "stateMutability": "view",
      "type": "function"
    },
    {
      "constant": true,
      "inputs": [
        {
          "name": "",
          "type": "address"
        }
      ],
      "name": "whitelist",
      "outputs": [
        {
          "name": "",
          "type": "bool"
        }
      ],
      "payable": false,
      "stateMutability": "view",
      "type": "function"
    },
    {
      "constant": true,
      "inputs": [],
      "name": "totalWeiRaisedDuringPreICO",
      "outputs": [
        {
          "name": "",
          "type": "uint256"
        }
      ],
      "payable": false,
      "stateMutability": "view",
      "type": "function"
    },
    {
      "constant": false,
      "inputs": [],
      "name": "claimRefund",
      "outputs": [],
      "payable": false,
      "stateMutability": "nonpayable",
      "type": "function"
    },
    {
      "constant": true,
      "inputs": [],
      "name": "openingTime",
      "outputs": [
        {
          "name": "",
          "type": "uint256"
        }
      ],
      "payable": false,
      "stateMutability": "view",
      "type": "function"
    },
    {
      "constant": true,
      "inputs": [],
      "name": "totalTokensForSaleDuringPreICO",
      "outputs": [
        {
          "name": "",
          "type": "uint256"
        }
      ],
      "payable": false,
      "stateMutability": "view",
      "type": "function"
    },
    {
      "constant": true,
      "inputs": [],
      "name": "stage",
      "outputs": [
        {
          "name": "",
          "type": "uint8"
        }
      ],
      "payable": false,
      "stateMutability": "view",
      "type": "function"
    },
    {
      "constant": false,
      "inputs": [
        {
          "name": "_beneficiary",
          "type": "address"
        }
      ],
      "name": "addToWhitelist",
      "outputs": [],
      "payable": false,
      "stateMutability": "nonpayable",
      "type": "function"
    },
    {
      "constant": true,
      "inputs": [],
      "name": "maxTokens",
      "outputs": [
        {
          "name": "",
          "type": "uint256"
        }
      ],
      "payable": false,
      "stateMutability": "view",
      "type": "function"
    },
    {
      "constant": false,
      "inputs": [
        {
          "name": "_beneficiary",
          "type": "address"
        }
      ],
      "name": "buyTokens",
      "outputs": [],
      "payable": true,
      "stateMutability": "payable",
      "type": "function"
    },
    {
      "constant": false,
      "inputs": [
        {
          "name": "newOwner",
          "type": "address"
        }
      ],
      "name": "transferOwnership",
      "outputs": [],
      "payable": false,
      "stateMutability": "nonpayable",
      "type": "function"
    },
    {
      "constant": true,
      "inputs": [],
      "name": "vault",
      "outputs": [
        {
          "name": "",
          "type": "address"
        }
      ],
      "payable": false,
      "stateMutability": "view",
      "type": "function"
    },
    {
      "constant": true,
      "inputs": [],
      "name": "token",
      "outputs": [
        {
          "name": "",
          "type": "address"
        }
      ],
      "payable": false,
      "stateMutability": "view",
      "type": "function"
    },
    {
      "constant": true,
      "inputs": [],
      "name": "tokensForTeam",
      "outputs": [
        {
          "name": "",
          "type": "uint256"
        }
      ],
      "payable": false,
      "stateMutability": "view",
      "type": "function"
    },
    {
      "inputs": [
        {
          "name": "_openingTime",
          "type": "uint256"
        },
        {
          "name": "_closingTime",
          "type": "uint256"
        },
        {
          "name": "_rate",
          "type": "uint256"
        },
        {
          "name": "_wallet",
          "type": "address"
        },
        {
          "name": "_cap",
          "type": "uint256"
        },
        {
          "name": "_token",
          "type": "address"
        },
        {
          "name": "_goal",
          "type": "uint256"
        }
      ],
      "payable": false,
      "stateMutability": "nonpayable",
      "type": "constructor"
    },
    {
      "payable": true,
      "stateMutability": "payable",
      "type": "fallback"
    },
    {
      "anonymous": false,
      "inputs": [
        {
          "indexed": false,
          "name": "text",
          "type": "string"
        }
      ],
      "name": "EthTransferred",
      "type": "event"
    },
    {
      "anonymous": false,
      "inputs": [
        {
          "indexed": false,
          "name": "text",
          "type": "string"
        }
      ],
      "name": "EthRefunded",
      "type": "event"
    },
    {
      "anonymous": false,
      "inputs": [],
      "name": "Finalized",
      "type": "event"
    },
    {
      "anonymous": false,
      "inputs": [
        {
          "indexed": true,
          "name": "previousOwner",
          "type": "address"
        },
        {
          "indexed": true,
          "name": "newOwner",
          "type": "address"
        }
      ],
      "name": "OwnershipTransferred",
      "type": "event"
    },
    {
      "anonymous": false,
      "inputs": [
        {
          "indexed": true,
          "name": "purchaser",
          "type": "address"
        },
        {
          "indexed": true,
          "name": "beneficiary",
          "type": "address"
        },
        {
          "indexed": false,
          "name": "value",
          "type": "uint256"
        },
        {
          "indexed": false,
          "name": "amount",
          "type": "uint256"
        }
      ],
      "name": "TokenPurchase",
      "type": "event"
    },
    {
      "constant": false,
      "inputs": [
        {
          "name": "value",
          "type": "uint256"
        }
      ],
      "name": "setCrowdsaleStage",
      "outputs": [],
      "payable": false,
      "stateMutability": "nonpayable",
      "type": "function"
    },
    {
      "constant": false,
      "inputs": [
        {
          "name": "_teamFund",
          "type": "address"
        },
        {
          "name": "_ecosystemFund",
          "type": "address"
        },
        {
          "name": "_bountyFund",
          "type": "address"
        }
      ],
      "name": "finish",
      "outputs": [],
      "payable": false,
      "stateMutability": "nonpayable",
      "type": "function"
    },
    {
      "constant": true,
      "inputs": [],
      "name": "hasEnded",
      "outputs": [
        {
          "name": "",
          "type": "bool"
        }
      ],
      "payable": false,
      "stateMutability": "view",
      "type": "function"
    }
  ],
  "bytecode": "0x60606040526007805460a060020a60ff0219169055600b805460ff1916905568056bc75e2d63100000600c556801158e460913d00000600d819055678ac7230489e80000600e819055600f55680340aad21b3b700000601055601155341561006657600080fd5b60405160e0806200186b833981016040528080519190602001805191906020018051919060200180519190602001805191906020018051919060200180519150819050878785888887600083116100bc57600080fd5b600160a060020a03821615156100d157600080fd5b600160a060020a03811615156100e657600080fd5b60029290925560018054600160a060020a03928316600160a060020a03199182161790915560008054929093169116178155811161012357600080fd5b6004554282101561013357600080fd5b8181101561014057600080fd5b60059190915560065560078054600160a060020a03191633600160a060020a03161790556000811161017157600080fd5b600154600160a060020a03166101856101e7565b600160a060020a039091168152602001604051809103906000f08015156101ab57600080fd5b60098054600160a060020a031916600160a060020a0392909216919091179055600855828111156101db57600080fd5b505050505050506101f8565b60405161060c806200125f83390190565b61105780620002086000396000f3006060604052600436106101875763ffffffff60e060020a6000350416631515bc2b81146103065780632c4e722e1461032d578063355274ea1461035257806340193883146103655780634042b66f146103785780634b6753bc1461038b5780634bb278f31461039e5780634c4cfc3b146103b35780634f935945146103c6578063521eb273146103d957806360219c7b14610408578063644280e21461041b5780637d3d65221461042e5780637e02bb0f146104415780638ab1d6811461046c5780638c10671c1461048b5780638d4e4083146104a95780638da5cb5b146104bc5780639b19251a146104cf578063a997f82f146104ee578063abe8014a14610504578063b5545a3c14610517578063b7a8807c1461052a578063c02aaea11461053d578063c040e6b814610550578063e43252d714610587578063e8315742146105a6578063ec8ac4d8146105b9578063ecb70fb7146105cd578063f2fde38b146105e0578063fbfa77cf146105ff578063fc0c546a14610612578063fde83a3414610625575b600061019e6002543461063890919063ffffffff16565b90506000600b5460ff1660018111156101b357fe5b1480156102295750601154600080548391600160a060020a03909116906318160ddd90604051602001526040518163ffffffff1660e060020a028152600401602060405180830381600087803b151561020b57600080fd5b6102c65a03f1151561021c57600080fd5b5050506040518051905001115b156102ca57600160a060020a0333163480156108fc0290604051600060405180830381858888f19350505050151561026057600080fd5b7fc0283f9c45b2118c7ec26e4f4bf06fc486f94a186fb38dc5dff372d9cb709d3760405160208082526010908201527f50726549434f204c696d697420486974000000000000000000000000000000006040808301919091526060909101905180910390a1610303565b6102d33361066e565b6000600b5460ff1660018111156102e657fe5b1415610303576012546102ff903463ffffffff61071616565b6012555b50005b341561031157600080fd5b610319610725565b604051901515815260200160405180910390f35b341561033857600080fd5b61034061072d565b60405190815260200160405180910390f35b341561035d57600080fd5b610340610733565b341561037057600080fd5b610340610739565b341561038357600080fd5b61034061073f565b341561039657600080fd5b610340610745565b34156103a957600080fd5b6103b161074b565b005b34156103be57600080fd5b6103406107ea565b34156103d157600080fd5b6103196107f0565b34156103e457600080fd5b6103ec6107fb565b604051600160a060020a03909116815260200160405180910390f35b341561041357600080fd5b61034061080a565b341561042657600080fd5b610340610810565b341561043957600080fd5b610319610816565b341561044c57600080fd5b6103b1600160a060020a0360043581169060243581169060443516610821565b341561047757600080fd5b6103b1600160a060020a0360043516610a76565b341561049657600080fd5b6103b16004803560248101910135610ab2565b34156104b457600080fd5b610319610b27565b34156104c757600080fd5b6103ec610b37565b34156104da57600080fd5b610319600160a060020a0360043516610b46565b34156104f957600080fd5b6103b1600435610b5b565b341561050f57600080fd5b610340610c01565b341561052257600080fd5b6103b1610c07565b341561053557600080fd5b610340610c92565b341561054857600080fd5b610340610c98565b341561055b57600080fd5b610563610c9e565b6040518082600181111561057357fe5b60ff16815260200191505060405180910390f35b341561059257600080fd5b6103b1600160a060020a0360043516610ca7565b34156105b157600080fd5b610340610ce6565b6103b1600160a060020a036004351661066e565b34156105d857600080fd5b610319610cec565b34156105eb57600080fd5b6103b1600160a060020a0360043516610cf1565b341561060a57600080fd5b6103ec610d8c565b341561061d57600080fd5b6103ec610d9b565b341561063057600080fd5b610340610daa565b60008083151561064b5760009150610667565b5082820282848281151561065b57fe5b041461066357fe5b8091505b5092915050565b34600061067b8383610db0565b61068482610de3565b60035490915061069a908363ffffffff61071616565b6003556106a78382610e00565b82600160a060020a031633600160a060020a03167f623b3804fa71d67900d064613da8f94b9617215ee90799290593e1745087ad18848460405191825260208201526040908101905180910390a36106ff8383610bfd565b610707610e0a565b6107118383610bfd565b505050565b60008282018381101561066357fe5b600654421190565b60025481565b60045481565b60085481565b60035481565b60065481565b60075433600160a060020a0390811691161461076657600080fd5b60075460a060020a900460ff161561077d57600080fd5b610785610725565b151561079057600080fd5b610798610e71565b7f6823b073d48d6e3a7d385eeb601452d680e74bb46afe3255a7d778f3a9b1768160405160405180910390a16007805474ff0000000000000000000000000000000000000000191660a060020a179055565b600d5481565b600454600354101590565b600154600160a060020a031681565b60105481565b600f5481565b600854600354101590565b600754600090819033600160a060020a0390811691161461084157600080fd5b60075460a060020a900460ff161561085857600080fd5b60008054600160a060020a0316906318160ddd90604051602001526040518163ffffffff1660e060020a028152600401602060405180830381600087803b15156108a157600080fd5b6102c65a03f115156108b257600080fd5b5050506040518051600c54909350831090506108cd57600080fd5b8160105403905060008111156108e657600d8054820190555b60008054600e54600160a060020a039091169163a9059cbb9188916040516020015260405160e060020a63ffffffff8516028152600160a060020a0390921660048301526024820152604401602060405180830381600087803b151561094b57600080fd5b6102c65a03f1151561095c57600080fd5b5050506040518051505060008054600d54600160a060020a039091169163a9059cbb9187916040516020015260405160e060020a63ffffffff8516028152600160a060020a0390921660048301526024820152604401602060405180830381600087803b15156109cb57600080fd5b6102c65a03f115156109dc57600080fd5b5050506040518051505060008054600f54600160a060020a039091169163a9059cbb9186916040516020015260405160e060020a63ffffffff8516028152600160a060020a0390921660048301526024820152604401602060405180830381600087803b1515610a4b57600080fd5b6102c65a03f11515610a5c57600080fd5b5050506040518051905050610a6f61074b565b5050505050565b60075433600160a060020a03908116911614610a9157600080fd5b600160a060020a03166000908152600a60205260409020805460ff19169055565b60075460009033600160a060020a03908116911614610ad057600080fd5b5060005b81811015610711576001600a6000858585818110610aee57fe5b60209081029290920135600160a060020a0316835250810191909152604001600020805460ff1916911515919091179055600101610ad4565b60075460a060020a900460ff1681565b600754600160a060020a031681565b600a6020526000908152604090205460ff1681565b60075460009033600160a060020a03908116911614610b7957600080fd5b811515610b8857506000610b95565b8160011415610b95575060015b600b805482919060ff191660018381811115610bad57fe5b02179055506000600b5460ff166001811115610bc557fe5b1415610bda57610bd56005610f30565b610bfd565b6001600b5460ff166001811115610bed57fe5b1415610bfd57610bfd6002610f30565b5050565b60125481565b60075460a060020a900460ff161515610c1f57600080fd5b610c27610816565b15610c3157600080fd5b600954600160a060020a031663fa89401a3360405160e060020a63ffffffff8416028152600160a060020a039091166004820152602401600060405180830381600087803b1515610c8157600080fd5b6102c65a03f1151561071157600080fd5b60055481565b60115481565b600b5460ff1681565b60075433600160a060020a03908116911614610cc257600080fd5b600160a060020a03166000908152600a60205260409020805460ff19166001179055565b600c5481565b600190565b60075433600160a060020a03908116911614610d0c57600080fd5b600160a060020a0381161515610d2157600080fd5b600754600160a060020a0380831691167f8be0079c531659141344cd1fd0a4f28419497f9722a3daafe3b4186f6b6457e060405160405180910390a36007805473ffffffffffffffffffffffffffffffffffffffff1916600160a060020a0392909216919091179055565b600954600160a060020a031681565b600054600160a060020a031681565b600e5481565b600160a060020a0382166000908152600a6020526040902054829060ff161515610dd957600080fd5b6107118383610f35565b6000610dfa6002548361063890919063ffffffff16565b92915050565b610bfd8282610f5e565b600954600160a060020a031663f340fa01343360405160e060020a63ffffffff8516028152600160a060020a0390911660048201526024016000604051808303818588803b1515610e5a57600080fd5b6125ee5a03f11515610e6b57600080fd5b50505050565b610e79610816565b15610ed657600954600160a060020a03166343d726d66040518163ffffffff1660e060020a028152600401600060405180830381600087803b1515610ebd57600080fd5b6102c65a03f11515610ece57600080fd5b505050610f2a565b600954600160a060020a0316638c52dc416040518163ffffffff1660e060020a028152600401600060405180830381600087803b1515610f1557600080fd5b6102c65a03f11515610f2657600080fd5b5050505b610f2e5b565b600255565b6005544210158015610f4957506006544211155b1515610f5457600080fd5b610bfd8282610fdf565b60008054600160a060020a03169063a9059cbb90849084906040516020015260405160e060020a63ffffffff8516028152600160a060020a0390921660048301526024820152604401602060405180830381600087803b1515610fc057600080fd5b6102c65a03f11515610fd157600080fd5b505050604051805150505050565b610fe9828261100a565b600454600354610fff908363ffffffff61071616565b1115610bfd57600080fd5b600160a060020a038216151561101f57600080fd5b801515610bfd57600080fd00a165627a7a723058201fd1aaa7f9bab76bbd32317d81b2edaf038e836bada34bebc91ba78fbe2e131500296060604052341561000f57600080fd5b60405160208061060c8339810160405280805160008054600160a060020a03191633600160a060020a039081169190911790915590925082161515905061005557600080fd5b60028054600160a060020a031916600160a060020a03929092169190911760a060020a60ff021916905561057e8061008e6000396000f3006060604052600436106100985763ffffffff7c010000000000000000000000000000000000000000000000000000000060003504166343d726d6811461009d578063521eb273146100b25780638c52dc41146100e15780638da5cb5b146100f4578063c19d93fb14610107578063cb13cddb1461013e578063f2fde38b1461016f578063f340fa011461018e578063fa89401a146101a2575b600080fd5b34156100a857600080fd5b6100b06101c1565b005b34156100bd57600080fd5b6100c561029c565b604051600160a060020a03909116815260200160405180910390f35b34156100ec57600080fd5b6100b06102ab565b34156100ff57600080fd5b6100c561033c565b341561011257600080fd5b61011a61034b565b6040518082600281111561012a57fe5b60ff16815260200191505060405180910390f35b341561014957600080fd5b61015d600160a060020a036004351661035b565b60405190815260200160405180910390f35b341561017a57600080fd5b6100b0600160a060020a036004351661036d565b6100b0600160a060020a0360043516610408565b34156101ad57600080fd5b6100b0600160a060020a036004351661048c565b60005433600160a060020a039081169116146101dc57600080fd5b60006002805460a060020a900460ff16908111156101f657fe5b1461020057600080fd5b6002805474ff00000000000000000000000000000000000000001916740200000000000000000000000000000000000000001790557f1cdde67b72a90f19919ac732a437ac2f7a10fc128d28c2a6e525d89ce5cd9d3a60405160405180910390a1600254600160a060020a039081169030163180156108fc0290604051600060405180830381858888f19350505050151561029a57600080fd5b565b600254600160a060020a031681565b60005433600160a060020a039081169116146102c657600080fd5b60006002805460a060020a900460ff16908111156102e057fe5b146102ea57600080fd5b6002805474ff0000000000000000000000000000000000000000191660a060020a1790557f599d8e5a83cffb867d051598c4d70e805d59802d8081c1c7d6dffc5b6aca2b8960405160405180910390a1565b600054600160a060020a031681565b60025460a060020a900460ff1681565b60016020526000908152604090205481565b60005433600160a060020a0390811691161461038857600080fd5b600160a060020a038116151561039d57600080fd5b600054600160a060020a0380831691167f8be0079c531659141344cd1fd0a4f28419497f9722a3daafe3b4186f6b6457e060405160405180910390a36000805473ffffffffffffffffffffffffffffffffffffffff1916600160a060020a0392909216919091179055565b60005433600160a060020a0390811691161461042357600080fd5b60006002805460a060020a900460ff169081111561043d57fe5b1461044757600080fd5b600160a060020a038116600090815260016020526040902054610470903463ffffffff61053c16565b600160a060020a03909116600090815260016020526040902055565b600060016002805460a060020a900460ff16908111156104a857fe5b146104b257600080fd5b50600160a060020a038116600081815260016020526040808220805492905590919082156108fc0290839051600060405180830381858888f1935050505015156104fb57600080fd5b81600160a060020a03167fd7dee2702d63ad89917b6a4da9981c90c4d24f8c2bdfd64c604ecae57d8d06518260405190815260200160405180910390a25050565b60008282018381101561054b57fe5b93925050505600a165627a7a723058201375e7becff11543060ef0d71674c90c50cdd22c43f61ba655a3c116d111ad5b0029",
  "source": "pragma solidity ^0.4.18;\n\nimport \"zeppelin-solidity/contracts/crowdsale/validation/CappedCrowdsale.sol\";\nimport \"zeppelin-solidity/contracts/crowdsale/validation/WhitelistedCrowdsale.sol\";\nimport \"zeppelin-solidity/contracts/crowdsale/distribution/RefundableCrowdsale.sol\";\nimport 'zeppelin-solidity/contracts/token/ERC20/MintableToken.sol';\nimport '../contracts/TestToken.sol';\n\n\n\ncontract TestCrowdsale is CappedCrowdsale, RefundableCrowdsale, WhitelistedCrowdsale {\n\n\n\t// ICO Stage\n  // ============\n  enum CrowdsaleStage { PreICO, ICO }\n  CrowdsaleStage public stage = CrowdsaleStage.PreICO; // By default it's Pre Sale\n  // =============\n\n  // Token Distribution\n  // =============================\n  uint256 public maxTokens = 100000000000000000000; // There will be total 100 Hashnode Tokens\n  uint256 public tokensForEcosystem = 20000000000000000000;\n  uint256 public tokensForTeam = 10000000000000000000;\n  uint256 public tokensForBounty = 10000000000000000000;\n  uint256 public totalTokensForSale = 60000000000000000000; // 60 HTs will be sold in Crowdsale\n  uint256 public totalTokensForSaleDuringPreICO = 20000000000000000000; // 20 out of 60 HTs will be sold during PreICO\n  // ==============================\n\n  // Amount raised in PreICO\n  // ==================\n  uint256 public totalWeiRaisedDuringPreICO;\n  // ===================\n\n\n  // Events\n  event EthTransferred(string text);\n  event EthRefunded(string text);\n\n\n // Constructor\n  // ============\n  function TestCrowdsale(uint256 _openingTime, uint256 _closingTime, uint256 _rate, address _wallet, uint256 _cap, MintableToken _token, uint256 _goal) public\n    Crowdsale(_rate, _wallet, _token)\n    CappedCrowdsale(_cap)\n    TimedCrowdsale(_openingTime, _closingTime)\n    RefundableCrowdsale(_goal)\n    WhitelistedCrowdsale()\n  {\n    require(_goal <= _cap);\n  }\n  // ==================\n\n  // Crowdsale Stage Management\n  // =========================================================\n\n  // Change Crowdsale Stage. Available Options: PreICO, ICO\n  function setCrowdsaleStage(uint value) public onlyOwner {\n\n      CrowdsaleStage _stage;\n\n      if (uint(CrowdsaleStage.PreICO) == value) {\n        _stage = CrowdsaleStage.PreICO;\n      } else if (uint(CrowdsaleStage.ICO) == value) {\n        _stage = CrowdsaleStage.ICO;\n      }\n\n      stage = _stage;\n\n      if (stage == CrowdsaleStage.PreICO) {\n        setCurrentRate(5);\n      } else if (stage == CrowdsaleStage.ICO) {\n        setCurrentRate(2);\n      }\n  }\n\n  // Change the current rate\n  function setCurrentRate(uint256 _rate) private {\n      rate = _rate;\n  }\n\n  // ================ Stage Management Over =====================\n\n  // Token Purchase\n  // =========================\n  function () external payable {\n      uint256 tokensThatWillBeMintedAfterPurchase = msg.value.mul(rate);\n      if ((stage == CrowdsaleStage.PreICO) && (token.totalSupply() + tokensThatWillBeMintedAfterPurchase > totalTokensForSaleDuringPreICO)) {\n        msg.sender.transfer(msg.value); // Refund them\n        EthRefunded(\"PreICO Limit Hit\");\n        return;\n      }\n\n      buyTokens(msg.sender);\n\n      if (stage == CrowdsaleStage.PreICO) {\n          totalWeiRaisedDuringPreICO = totalWeiRaisedDuringPreICO.add(msg.value);\n      }\n  }\n\n  function forwardFunds() internal {\n      if (stage == CrowdsaleStage.PreICO) {\n          wallet.transfer(msg.value);\n          EthTransferred(\"forwarding funds to wallet\");\n      } else if (stage == CrowdsaleStage.ICO) {\n          EthTransferred(\"forwarding funds to refundable vault\");  \n          super._forwardFunds();\n    \n      }\n  }\n  // ===========================\n\n  // Finish: Mint Extra Tokens as needed before finalizing the Crowdsale.\n  // ====================================================================\n\n  function finish(address _teamFund, address _ecosystemFund, address _bountyFund) public onlyOwner {\n\n      require(!isFinalized);\n      uint256 alreadyMinted = token.totalSupply();\n      require(alreadyMinted < maxTokens);\n\n      uint256 unsoldTokens = totalTokensForSale - alreadyMinted;\n      if (unsoldTokens > 0) {\n        tokensForEcosystem = tokensForEcosystem + unsoldTokens;\n      }\n\n      token.transfer(_teamFund,tokensForTeam);\n      token.transfer(_ecosystemFund,tokensForEcosystem);\n      token.transfer(_bountyFund,tokensForBounty);\n      finalize();\n  }\n  // ===============================\n\n  // REMOVE THIS FUNCTION ONCE YOU ARE READY FOR PRODUCTION\n  // USEFUL FOR TESTING `finish()` FUNCTION\n  function hasEnded() public view returns (bool) {\n    return true;\n  }\n\n}\n",
  "sourcePath": "/Users/wenwenchen/Documents/TestCrowdsale/contracts/TestCrowdsale.sol",
  "compiler": {
    "name": "solc",
    "version": "0.4.19+commit.c4cbbb05.Emscripten.clang"
  },
  "schemaVersion": "2.0.0",
  "updatedAt": "2018-04-15T12:40:53.955Z"
}